:040000008DEF00F090
:1000080000C015F0F2A415D017C018F031D8172A7F
:1000180017500908D8A0176A1650010A05E1CD0E35
:10002800D76E0B0ED66E04D0F70ED76EC20ED66EF4
:10003800F294F2A204D0010E166ED58EF292F0A0C0
:0E00480003D0166AD58EF09015C000F011009E
:10005600040ED56ECD0ED76E0B0ED66EF294D58EDF
:02006600120086
:10006800F28EF28CF28AF288F086F292F090120008
:1000780020D03F0E8C6E3CD0060E8C6E39D05B0EB5
:100088008C6E36D04F0E8C6E33D0660E8C6E30D0A0
:100098006D0E8C6E2DD07D0E8C6E2AD0070E8C6E58
:1000A80027D07F0E8C6E24D06F0E8C6E21D08C6A78
:1000B8001FD01850000ADDE01850010ADDE0185082
:1000C800020ADDE01850030ADDE01850040ADDE0FA
:1000D8001850050ADDE01850060ADDE01850070A36
:1000E800DDE01850080ADDE01850090ADDE0DFD726
:0200F8001200F4
:1000FA000900F5CFE6FF0006FBE10106F9E112006F
:10010A000F0EC112956A030E936E8C6AF19E12004D
:10011A00010E166E176AF4DF99DFA1DFFFD7FFD74A
:020000040030CA
:0E000000000C1F1EFF8381FF0FC00FE00F409A
:00000001FF
