:04000000FCEF00F021
:1000080000C016F001C015F0F2A41FD0010E17248D
:10001800006E000E1820016E0A0E046E000E056EAA
:1000280049D808C000F009C001F000C017F001C0AD
:1000380018F000C01DF001C01EF057D8D59E1BC097
:10004800D7FF19C0D6FFD58EF294F2A20FD00B0EAF
:100058001B6E000E1C6EDC0E196E000E1A6ED59EFD
:100068000B0ED76EDC0ED66ED58EF292F0A00FD0A6
:10007800C20E1B6E000E1C6EF70E196E000E1A6E65
:10008800D59EC20ED76EF70ED66ED58EF09016C0DE
:0800980000F015C001F0110099
:1000A000D08EF28EF28CF294F28AF184F292F29077
:0C00B000F288F086F08CF18CF18A1200CE
:1000BC00086A096A100E0C6E0134083609360450B1
:1000CC00085E0550D8A0053C095ED8B007D0045096
:1000DC0008260550D8B0053C0926D89000360136C4
:0600EC000C2EEAD7120001
:1000F200800E1E18006E800E005C02E1000E1D5C78
:100102000AE3800E006E800E1E18005C02E11D5094
:10011200090801E302D08C6A5BD01ED03F0E8C6EC0
:1001220057D0060E8C6E54D05B0E8C6E51D04F0E93
:100132008C6E4ED0660E8C6E4BD06D0E8C6E48D08F
:100142007D0E8C6E45D0070E8C6E42D07F0E8C6E6B
:100152003FD06F0E8C6E3CD0000E1E1802E1000ED6
:100162001D18DCE0000E1E1802E1010E1D18D9E078
:10017200000E1E1802E1020E1D18D6E0000E1E1817
:1001820002E1030E1D18D3E0000E1E1802E1040E58
:100192001D18D0E0000E1E1802E1050E1D18CDE05C
:1001A200000E1E1802E1060E1D18CAE0000E1E18EF
:1001B20002E1070E1D18C7E0000E1E1802E1080E2C
:1001C2001D18C4E0000E1E1802E1090E1D18C1E040
:0201D200120019
:1001D4000900F5CFE6FF0006FBE10106F9E1120094
:1001E4000F0EC112F19E956A836A93809382818077
:0401F40081821200F2
:1001F800176A186AF3DF040ED56E4EDFFFD7FFD7F4
:020000040030CA
:0E000000000C1F1EFF8381FF0FC00FE00F409A
:00000001FF
